:020000040800F2
:1000000000000120DD070008450700084D07000833
:10001000550700085D07000865070008000000009C
:100020000000000000000000000000006D07000854
:100030007B070008000000008907000897070008F8
:100040002D0800082D0800082D0800082D080008BC
:100050002D0800082D0800082D0800082D080008AC
:100060002D0800082D0800082D0800082D0800089C
:100070002D0800082D0800082D080008A507000815
:100080002D0800082D0800082D0800082D0800087C
:100090002D0800082D0800082D0800082D0800086C
:1000A0002D0800082D0800082D0800082D0800085C
:1000B0002D0800082D0800082D0800082D0800084C
:1000C0002D0800082D0800082D0800082D0800083C
:1000D0002D0800082D0800082D0800082D0800082C
:1000E0002D0800082D0800082D0800082D0800081C
:1000F0002D0800082D0800082D0800082D0800080C
:100100002D08000800000000000000002D08000875
:100110002D0800082D0800082D0800082D080008EB
:100120002D0800082D0800082D0800082D080008DB
:100130002D0800082D080008000000000000000045
:100140002D0800082D0800082D08000800000000F8
:10015000000000000000000000000000000000009F
:100160002D0800082D0800082D0800082D0800089B
:100170002D0800082D0800082D0800082D0800088B
:100180002D0800082D0800080000000000000000F5
:040190002D0800082E
:1001940010B5054C237833B9044B13B10448AFF3BD
:1001A40000800123237010BD0C000020000000001B
:1001B400904A000808B5034B1BB103490348AFF349
:1001C400008008BD0000000010000020904A0008D4
:1001D40080B500AF00F02AFB00F02AF800F04EF9D9
:1001E40000F02EF900F0FCF800F084F803220C492A
:1001F4000C4803F012FE00210B4802F051FD642369
:1002040003220A49074803F07FFD012202214FF02F
:10021400904000F0E3FF642000F06EFB00BFEEE7C7
:100224004401002074000020280000204001002028
:1002340080B5A6B000AF07F170032822002118464C
:1002440004F0F7FB07F15C0300221A605A609A601D
:10025400DA601A613B1D58220021184604F0E9FBBC
:1002640002233B670123FB671023C7F88030022376
:10027400C7F888304FF40043C7F88C304FF4E013CC
:10028400C7F890300023C7F8943007F1700318467C
:1002940000F0BCFF0346002B01D000F067F90F23E8
:1002A400FB6502233B6600237B664FF48063BB66D9
:1002B4000023FB6607F15C030221184601F0FAFFF4
:1002C4000346002B01D000F051F9094B7B60002359
:1002D400FB600023FB633B1D184602F00BFA034648
:1002E400002B01D000F042F900BF9837BD4680BD15
:1002F4000100100080B58EB000AF07F12803002282
:100304001A605A609A60DA6007F11C0300221A60CE
:100314005A609A603B4600221A605A609A60DA601A
:100324001A615A619A612D4B4FF080421A602B4B2F
:1003340000225A60294B00229A60284B4FF6FF7224
:10034400DA60264B00221A61244B80229A612348EA
:1003540002F0EEFB0346002B01D000F007F94FF446
:100364008053BB6207F1280319461C4802F0B8FE0B
:100374000346002B01D000F0F9F8184802F02FFCD6
:100384000346002B01D000F0F1F80023FB610023A9
:100394007B6207F11C031946104803F0DBFB03469C
:1003A400002B01D000F0E2F860233B6000237B6067
:1003B4000023BB6000233B613B46002219460748EB
:1003C40002F07AFD0346002B01D000F0CFF8034879
:1003D40000F014F900BF3837BD4680BD2800002066
:1003E40080B500AF144B154A1A60134B4FF4965264
:1003F4005A60114B00229A600F4B0022DA600E4BB8
:1004040000221A610C4B0C225A610B4B00229A6198
:10041400094B0022DA61084B00221A62064B0022C3
:100424005A62054803F022FC0346002B01D000F079
:100434009DF800BF80BD00BF74000020003801405B
:1004440080B582B000AF0C4B5B690B4A43F00103EB
:100454005361094B5B6903F001037B607B680022F5
:1004640000210F2000F047FB0F2000F060FB00BFCD
:100474000837BD4680BD00BF0010024080B588B07B
:1004840000AF07F10C0300221A605A609A60DA6028
:100494001A61184B5B69174A43F480035361154B87
:1004A4005B6903F48003BB60BB68124B5B69114A50
:1004B40043F4003353610F4B5B6903F400337B60F7
:1004C4007B68002222214FF0904000F087FE222317
:1004D400FB6001233B6100237B610023BB6107F1C7
:1004E4000C0319464FF0904000F0EEFC00BF20379B
:1004F400BD4680BD0010024080B584B000AF786076
:100504000023FB601DE0154AFB6813441B78194661
:10051400134AFB6813441B78CA18124B83FB02135B
:100524001344D911D317C91A0B461B025B1AD11AEB
:10053400C9B20A4AFB6813440A461A70FB680133BD
:10054400FB60FB68022BDEDD03220549064803F04D
:1005540064FC00BF1037BD4680BD00BF40010020D1
:1005640044010020818080807400002080B400AFAA
:1005740072B600BF00BFFDE780B483B000AF0F4B7D
:100584009B690E4A43F0010393610C4B9B6903F092
:1005940001037B607B68094BDB69084A43F08053A5
:1005A400D361064BDB6903F080533B603B6800BFBB
:1005B4000C37BD465DF8047B704700BF0010024055
:1005C40080B485B000AF78607B681B68B3F1804F5E
:1005D4000BD1094BDB69084A43F00103D361064B95
:1005E400DB6903F00103FB60FB6800BF1437BD4601
:1005F4005DF8047B704700BF0010024080B588B0EE
:1006040000AF786007F10C0300221A605A609A6008
:10061400DA601A617B681B68B3F1804F1CD1104B00
:100624005B690F4A43F4003353610D4B5B6903F478
:100634000033BB60BB680123FB6002233B610023E2
:100644007B610023BB610123FB6107F10C031946A5
:100654004FF0904000F038FC00BF2037BD4680BD0D
:100664000010024080B58AB000AF786007F114032F
:1006740000221A605A609A60DA601A617B681B680B
:100684002B4A93424FD12B4B9B692A4A43F4804314
:100694009361284B9B6903F480433B613B69254B81
:1006A4005B69244A43F400335361224B5B6903F4CE
:1006B4000033FB60FB684FF4C0637B610223BB61C2
:1006C4000023FB6103233B6207237B6207F11403CE
:1006D40019464FF0904000F0F7FB174B174A1A6089
:1006E400154B00225A60144B00229A60124B802250
:1006F400DA60114B00221A610F4B00225A610E4B33
:1007040000229A610C4B0022DA610B4800F029FAAE
:100714000346002B01D0FFF729FF7B68064A5A677E
:10072400054A7B68536200BF2837BD4680BD00BFC1
:100734000038014000100240FC0000205800024034
:1007440080B400AF00BFFDE780B400AF00BFFDE799
:1007540080B400AF00BFFDE780B400AF00BFFDE789
:1007640080B400AF00BFFDE780B400AF00BFBD465A
:100774005DF8047B704780B400AF00BFBD465DF8F0
:10078400047B704780B400AF00BFBD465DF8047BB6
:10079400704780B500AF00F08FF800BF80BD000047
:1007A40080B500AF024800F082FA00BF80BD00BFF0
:1007B400FC00002080B400AF064BD3F88830054A13
:1007C40043F47003C2F8883000BFBD465DF8047B73
:1007D400704700BF00ED00E0DFF834D0FFF7EAFF18
:1007E4000C480D490D4A002302E0D458C450043388
:1007F400C4188C42F9D30A4A0A4C002301E013605E
:100804000432A242FBD304F01DF9FFF7E1FCFEE73A
:1008140000000120000000200C000020E84A00082D
:100824000C0000204C010020FEE7000080B500AF62
:10083400084B1B68074A43F010031360032000F0C1
:100844004FF90F2000F008F8FFF796FE0023184632
:1008540080BD00BF0020024080B582B000AF786048
:10086400124B1A68124B1B7819464FF47A73B3FB78
:10087400F1F3B2FBF3F3184600F067F90346002BDB
:1008840001D001230EE07B680F2B0AD8002279687F
:100894004FF0FF3000F02FF9064A7B681360002305
:1008A40000E0012318460837BD4680BD0000002043
:1008B400080000200400002080B400AF064B1B7821
:1008C4001A46064B1B681344044A136000BFBD4616
:1008D4005DF8047B704700BF080000204801002039
:1008E40080B400AF034B1B681846BD465DF8047B1B
:1008F400704700BF4801002080B584B000AF786025
:10090400FFF7EEFFB8607B68FB60FB68B3F1FF3F65
:1009140005D00A4B1B781A46FB681344FB6000BFE2
:10092400FFF7DEFF0246BB68D31AFA689A42F7D88B
:1009340000BF00BF1037BD4680BD00BF08000020C7
:1009440080B485B000AF78607B6803F00703FB6078
:100954000C4BDB68BB60BA684FF6FF031340BB6007
:10096400FB681A02BB68134343F0BF6343F40033CC
:10097400BB60044ABB68D36000BF1437BD465DF852
:10098400047B704700ED00E080B400AF044BDB68EB
:100994001B0A03F007031846BD465DF8047B704745
:1009A40000ED00E080B483B000AF0346FB7197F91B
:1009B4000730002B0BDBFB7903F01F02074997F983
:1009C40007305B09012000FA02F241F8232000BF3E
:1009D4000C37BD465DF8047B704700BF00E100E0C2
:1009E40080B483B000AF03463960FB7197F90730D8
:1009F400002B0ADB3B68DAB20C4997F90730120185
:100A0400D2B20B4483F800230AE03B68DAB2084907
:100A1400FB7903F00F03043B1201D2B20B441A76A4
:100A240000BF0C37BD465DF8047B704700E100E071
:100A340000ED00E080B489B000AFF860B9607A607E
:100A4400FB6803F00703FB61FB69C3F10703042B95
:100A540028BF0423BB61FB690433062B02D9FB695D
:100A6400033B00E000237B614FF0FF32BB6902FAD5
:100A740003F3DA43BB681A407B699A404FF0FF31B5
:100A84007B6901FA03F3D9437B680B40134318468F
:100A94002437BD465DF8047B7047000080B582B002
:100AA40000AF78607B68013BB3F1807F01D3012301
:100AB4000FE00A4A7B68013B53600F214FF0FF307F
:100AC400FFF78EFF054B00229A60044B07221A6041
:100AD400002318460837BD4680BD00BF10E000E083
:100AE40080B582B000AF78607868FFF729FF00BF57
:100AF4000837BD4680BD80B586B000AF0346B960F7
:100B04007A60FB7300237B61FFF73EFF78617A68AC
:100B1400B9687869FFF78EFF024697F90F301146DE
:100B24001846FFF75DFF00BF1837BD4680BD80B58E
:100B340082B000AF0346FB7197F907301846FFF700
:100B440031FF00BF0837BD4680BD80B582B000AF1D
:100B540078607868FFF7A2FF034618460837BD4659
:100B640080BD80B584B000AF78600023FB607B68F3
:100B7400002B01D1012337E07B68022283F8212076
:100B84007B681B681B68FB60FB6823F47F5323F0BE
:100B94003003FB607B685A687B689B681A437B68F8
:100BA400DB681A437B681B691A437B685B691A43D9
:100BB4007B689B691A437B68DB691343FA681343B8
:100BC400FB607B681B68FA681A60786800F040F97B
:100BD4007B6800229A637B68012283F821207B686A
:100BE400002283F82020002318461037BD4680BD1C
:100BF40080B586B000AFF860B9607A603B600023CE
:100C0400FB75FB6893F82030012B01D102234AE0E5
:100C1400FB68012283F82020FB6893F82130012B24
:100C24003AD1FB68022283F82120FB6800229A63F0
:100C3400FB681B681A68FB681B6822F001021A60D3
:100C44003B687A68B968F86800F0D4F8FB68DB6A36
:100C5400002B08D0FB681B681A68FB681B6842F00D
:100C64000E021A600FE0FB681B681A68FB681B68B9
:100C740042F00A021A60FB681B681A68FB681B686A
:100C840022F004021A60FB681B681A68FB681B6880
:100C940042F001021A6005E0FB68002283F820207C
:100CA4000223FB75FB7D18461837BD4680BD80B511
:100CB40084B000AF78607B68DB6B1B68FB607B688B
:100CC4001B681B68BB607B681B6C04229A40FB6832
:100CD4001340002B24D0BB6803F00403002B1FD067
:100CE4007B681B681B6803F02003002B07D17B681B
:100CF4001B681A687B681B6822F004021A607B6810
:100D04001A6C7B68DB6B042101FA02F25A607B687F
:100D1400DB6A002B6AD07B68DB6A7868984765E0F9
:100D24007B681B6C02229A40FB681340002B2CD07A
:100D3400BB6803F00203002B27D07B681B681B6889
:100D440003F02003002B0BD17B681B681A687B68B7
:100D54001B6822F00A021A607B68012283F82120B2
:100D64007B681A6C7B68DB6B022101FA02F25A6021
:100D74007B68002283F820207B689B6A002B35D097
:100D84007B689B6A7868984730E07B681B6C082214
:100D94009A40FB681340002B28D0BB6803F008037B
:100DA400002B23D07B681B681A687B681B6822F0C1
:100DB4000E021A607B681A6C7B68DB6B012101FAF6
:100DC40002F25A607B6801229A637B68012283F8ED
:100DD40021207B68002283F820207B681B6B002B7A
:100DE40004D07B681B6B78689847FFE700BF103717
:100DF400BD4680BD80B485B000AFF860B9607A604C
:100E04003B60FB681A6CFB68DB6B012101FA02F2A0
:100E14005A60FB681B683A685A60FB685B68102B71
:100E240008D1FB681B687A689A60FB681B68BA681B
:100E3400DA6007E0FB681B68BA689A60FB681B68A5
:100E44007A68DA6000BF1437BD465DF8047B7047EA
:100E540080B483B000AF78607B681B681A46144B7B
:100E64009A420FD87B681B681A46124B1344124AE5
:100E7400A2FB03231B099A007B681A647B680F4A50
:100E8400DA630EE07B681B681A460D4B13440A4A6A
:100E9400A2FB03231B099A007B681A647B68094A36
:100EA400DA6300BF0C37BD465DF8047B704700BFB2
:100EB40007040240F8FFFDBFCDCCCCCC00000240BB
:100EC400F8FBFDBF0004024080B487B000AF786037
:100ED400396000237B6160E13B681A6801217B690A
:100EE40001FA03F31340FB60FB68002B00F052810E
:100EF4003B685B6803F00303012B05D03B685B6828
:100F040003F00303022B30D17B689B683B617B6950
:100F14005B00032202FA03F3DB433A6913403B61AB
:100F24003B68DA687B695B0002FA03F33A691343AE
:100F34003B617B683A699A607B685B683B6101222C
:100F44007B6902FA03F3DB433A6913403B613B6874
:100F54005B681B0903F001027B6902FA03F33A6937
:100F640013433B617B683A695A603B685B6803F0F2
:100F74000303032B17D07B68DB683B617B695B0051
:100F8400032202FA03F3DB433A6913403B613B68F3
:100F94009A687B695B0002FA03F33A6913433B6185
:100FA4007B683A69DA603B685B6803F00303022BF1
:100FB40023D17B69DA087B68083253F822303B611D
:100FC4007B6903F007039B000F2202FA03F3DB4360
:100FD4003A6913403B613B681A697B6903F0070374
:100FE4009B0002FA03F33A6913433B617B69DA0815
:100FF4007B680832396943F822107B681B683B61BF
:101004007B695B00032202FA03F3DB433A69134072
:101014003B613B685B6803F003027B695B0002FA97
:1010240003F33A6913433B617B683A691A603B688E
:101034005B6803F44033002B00F0AC805E4B9B698B
:101044005D4A43F0010393615B4B9B6903F0010329
:10105400BB60BB68594A7B699B08023352F8233052
:101064003B617B6903F003039B000F2202FA03F345
:10107400DB433A6913403B617B68B3F1904F25D061
:101084007B684F4A93421FD07B684E4A934219D0E3
:101094007B684D4A934213D07B684C4A93420DD0EF
:1010A4007B684B4A934207D07B684A4A934201D1FA
:1010B40006230CE007230AE0052308E0042306E0E6
:1010C400032304E0022302E0012300E000237A6901
:1010D40002F00302920093403A6913433B6137499B
:1010E4007B699B0802333A6941F823203A4B9B6899
:1010F4003B61FB68DB433A6913403B613B685B68D7
:1011040003F48013002B03D03A69FB6813433B615B
:10111400314A3B699360304BDB683B61FB68DB43DE
:101124003A6913403B613B685B6803F40013002B8E
:1011340003D03A69FB6813433B61274A3B69D36098
:10114400254B5B683B61FB68DB433A6913403B61B9
:101154003B685B6803F40033002B03D03A69FB68F7
:1011640013433B611C4A3B6953601B4B1B683B6147
:10117400FB68DB433A6913403B613B685B6803F4FB
:101184008033002B03D03A69FB6813433B61124A56
:101194003B6913607B6901337B613B681A687B6937
:1011A40022FA03F3002B7FF497AE00BF00BF1C3775
:1011B400BD465DF8047B704700100240000001400A
:1011C4000004004800080048000C004800100048D3
:1011D40000140048001800480004014080B483B0A3
:1011E40000AF78600B467B8013467B707B78002BC6
:1011F40003D07A887B689A6102E07A887B689A6275
:1012040000BF0C37BD465DF8047B704780B5ADF573
:10121400027D00AF07F50273A3F50173186007F5AB
:101224000273A3F501731B68002B02D1012301F0A3
:101234003AB807F50273A3F501731B681B6803F042
:101244000103002B00F06F81B54B5B6803F00C03C6
:10125400042B0CD0B24B5B6803F00C03082B5CD15D
:10126400AF4B5B6803F4C033B3F5803F55D14FF403
:101274000033C7F8F431D7F8F43193FAA3F3C7F87D
:10128400F031D7F8F031B3FA83F3DBB25B09DBB2A8
:1012940043F00103DBB2012B02D1A14B1B6815E023
:1012A4004FF40033C7F8EC31D7F8EC3193FAA3F3D9
:1012B400C7F8E8314FF40033C7F8E431D7F8E43124
:1012C40093FAA3F3C7F8E031954B5B6A4FF400320D
:1012D400C7F8DC21D7F8DC2192FAA2F2C7F8D821AA
:1012E400D7F8D821B2FA82F2D2B242F02002D2B2B6
:1012F40002F01F02012101FA02F21340002B00F058
:10130400118107F50273A3F501731B685B68002B59
:1013140040F00881012300F0C6BF07F50273A3F56E
:1013240001731B685B68B3F5803F06D17C4B1B6877
:101334007B4A43F48033136036E007F50273A3F568
:1013440001731B685B68002B0CD1754B1B68744AD6
:1013540023F480331360724B1B68714A23F4802397
:10136400136021E007F50273A3F501731B685B6842
:10137400B3F5A02F0CD16A4B1B68694A43F4802350
:101384001360674B1B68664A43F4803313600BE0B9
:10139400634B1B68624A23F480331360604B1B6801
:1013A4005F4A23F48023136007F50273A3F50173E6
:1013B4001B685B68002B59D0FFF792FAC7F800024C
:1013C4000AE0FFF78DFA0246D7F80032D31A642BED
:1013D40002D9032300F067BF4FF40033C7F8D431B8
:1013E400D7F8D43193FAA3F3C7F8D031D7F8D03172
:1013F400B3FA83F3DBB25B09DBB243F00103DBB284
:10140400012B02D1464B1B6815E04FF40033C7F89B
:10141400CC31D7F8CC3193FAA3F3C7F8C8314FF4E1
:101424000033C7F8C431D7F8C43193FAA3F3C7F82B
:10143400C0313B4B5B6A4FF40032C7F8BC21D7F88C
:10144400BC2192FAA2F2C7F8B821D7F8B821B2FAAF
:1014540082F2D2B242F02002D2B202F01F02012183
:1014640001FA02F21340002BABD05CE0FFF738FA2C
:10147400C7F800020AE0FFF733FA0246D7F8003251
:10148400D31A642B02D9032300F00DBF4FF40033A9
:10149400C7F8B431D7F8B43193FAA3F3C7F8B0312D
:1014A400D7F8B031B3FA83F3DBB25B09DBB243F0B4
:1014B4000103DBB2012B02D1194B1B6815E04FF479
:1014C4000033C7F8AC31D7F8AC3193FAA3F3C7F8BB
:1014D400A8314FF40033C7F8A431D7F8A43193FAF4
:1014E400A3F3C7F8A0310E4B5B6A4FF40032C7F880
:1014F4009C21D7F89C2192FAA2F2C7F89821D7F838
:101504009821B2FA82F2D2B242F02002D2B202F0B0
:101514001F02012101FA02F21340002BABD102E0B9
:101524000010024000BF07F50273A3F501731B68A6
:101534001B6803F00203002B00F07F81A74B5B685C
:1015440003F00C03002B0CD0A44B5B6803F00C03DA
:10155400082B73D1A14B5B6803F4C033B3F5004F80
:101564006CD10223C7F89431D7F8943193FAA3F3DA
:10157400C7F89031D7F89031B3FA83F3DBB25B0943
:10158400DBB243F00103DBB2012B02D1934B1B68A6
:1015940013E00223C7F88C31D7F88C3193FAA3F304
:1015A400C7F888310223C7F88431D7F8843193FA15
:1015B400A3F3C7F88031894B5B6A0222C7F87C2108
:1015C400D7F87C2192FAA2F2C7F87821D7F87821CB
:1015D400B2FA82F2D2B242F02002D2B202F01F0278
:1015E400012101FA02F21340002B0AD007F502731D
:1015F400A3F501731B68DB68012B02D0012300F003
:1016040052BE764B1B6823F0F80207F50273A3F56C
:1016140001731B681B69F821C7F87411D7F874119A
:1016240091FAA1F1C7F87011D7F87011B1FA81F1EC
:10163400C9B28B40694913430B60FEE007F502739E
:10164400A3F501731B68DB68002B00F0888001237D
:10165400C7F86C31D7F86C3193FAA3F3C7F8683143
:10166400D7F86831B3FA83F3DBB203F1845303F59B
:1016740084139B001A4601231360FFF731F9C7F85E
:1016840000020AE0FFF72CF90246D7F80032D31A19
:10169400022B02D9032300F006BE0223C7F86431EB
:1016A400D7F8643193FAA3F3C7F86031D7F86031FF
:1016B400B3FA83F3DBB25B09DBB243F00103DBB2C1
:1016C400012B02D1454B1B6813E00223C7F85C31A0
:1016D400D7F85C3193FAA3F3C7F858310223C7F85B
:1016E4005431D7F8543193FAA3F3C7F850313B4B34
:1016F4005B6A0222C7F84C21D7F84C2192FAA2F275
:10170400C7F84821D7F84821B2FA82F2D2B242F09F
:101714002002D2B202F01F02012101FA02F21340A8
:10172400002BAFD02D4B1B6823F0F80207F5027392
:10173400A3F501731B681B69F821C7F84411D7F896
:10174400441191FAA1F1C7F84011D7F84011B1FA48
:1017540081F1C9B28B40214913430B606DE0012331
:10176400C7F83C31D7F83C3193FAA3F3C7F83831C2
:10177400D7F83831B3FA83F3DBB203F1845303F5BA
:1017840084139B001A4600231360FFF7A9F8C7F8D7
:1017940000020AE0FFF7A4F80246D7F80032D31A91
:1017A400022B02D9032300F07EBD0223C7F8343193
:1017B400D7F8343193FAA3F3C7F83031D7F830317E
:1017C400B3FA83F3DBB25B09DBB243F00103DBB2B0
:1017D400012B05D1014B1B6816E000BF001002402D
:1017E4000223C7F82C31D7F82C3193FAA3F3C7F8A6
:1017F40028310223C7F82431D7F8243193FAA3F30C
:10180400C7F82031BF4B5B6A0222C7F81C21D7F806
:101814001C2192FAA2F2C7F81821D7F81821B2FABB
:1018240082F2D2B242F02002D2B202F01F020121AF
:1018340001FA02F21340002BACD107F50273A3F5B1
:1018440001731B681B6803F00803002B00F013816D
:1018540007F50273A3F501731B685B69002B7CD049
:101864000123C7F81431D7F8143193FAA3F3C7F856
:101874001031D7F81031B3FA83F3DBB21A46A24B16
:1018840013449B001A4601231360FFF729F8C7F895
:1018940000020AE0FFF724F80246D7F80032D31A10
:1018A400022B02D9032300F0FEBC0223C7F80C313B
:1018B400D7F80C3193FAA3F207F50273A3F58073FA
:1018C4001A6007F50273A3F5827302221A6007F502
:1018D4000273A3F582731B6893FAA3F207F50273EC
:1018E400A3F584731A6007F50273A3F586730222C5
:1018F4001A6007F50273A3F586731B6893FAA3F2C3
:1019040007F50273A3F588731A607E4B5A6A07F5CC
:101914000273A3F58A730221196007F50273A3F514
:101924008A731B6893FAA3F107F50273A3F58C730A
:10193400196007F50273A3F58C731B68B3FA83F37C
:10194400DBB243F06003DBB203F01F03012101FAB1
:1019540003F31340002B9DD08DE007F50273A3F52C
:101964008E7301221A6007F50273A3F58E731B6848
:1019740093FAA3F207F50273A3F590731A6007F5BF
:101984000273A3F590731B68B3FA83F3DBB21A46B0
:101994005D4B13449B001A4600231360FEF7A0FF1F
:1019A400C7F800020AE0FEF79BFF0246D7F80032B0
:1019B400D31A022B02D9032300F075BC07F5027376
:1019C400A3F5927302221A6007F50273A3F59273CA
:1019D4001B6893FAA3F207F50273A3F594731A60D4
:1019E40007F50273A3F5967302221A6007F50273D2
:1019F400A3F596731B6893FAA3F207F50273A3F594
:101A040098731A6007F50273A3F59A7302221A6099
:101A140007F50273A3F59A731B6893FAA3F207F50B
:101A24000273A3F59C731A60364B5A6A07F5027366
:101A3400A3F59E730221196007F50273A3F59E7343
:101A44001B6893FAA3F107F50273A3F5A073196059
:101A540007F50273A3F5A0731B68B3FA83F3DBB233
:101A640043F06003DBB203F01F03012101FA03F327
:101A74001340002B97D107F50273A3F501731B687C
:101A84001B6803F00403002B00F0A581002387F8F2
:101A940007321C4BDB6903F08053002B16D1194B22
:101AA400DB69184A43F08053D361164BDB6903F0BA
:101AB400805207F50273A3F5FE731A6007F50273EB
:101AC400A3F5FE731B68012387F807320F4B1B68CD
:101AD40003F48073002B21D10C4B1B680B4A43F495
:101AE40080731360FEF7FCFEC7F8000210E0FEF7F7
:101AF400F7FE0246D7F80032D31A642B08D9032321
:101B0400D1E300BF0010024020819010007000401B
:101B14008D4B1B6803F48073002BE8D007F5027328
:101B2400A3F501731B689B68012B06D1874B1B6AC5
:101B3400864A43F00103136235E007F50273A3F507
:101B440001731B689B68002B0CD1804B1B6A7F4A76
:101B540023F0010313627D4B1B6A7C4A23F00403C8
:101B6400136220E007F50273A3F501731B689B68F9
:101B7400052B0CD1754B1B6A744A43F004031362A2
:101B8400724B1B6A714A43F0010313620BE06F4B03
:101B94001B6A6E4A23F0010313626C4B1B6A6B4A87
:101BA40023F00403136207F50273A3F501731B68A2
:101BB4009B68002B00F08180FEF792FEC7F80002BC
:101BC4000BE0FEF78DFE0246D7F80032D31A41F23D
:101BD4008832934201D9032365E307F50273A3F521
:101BE400A27302221A6007F50273A3F5A2731B689D
:101BF40093FAA3F207F50273A3F5A4731A6007F529
:101C04000273A3F5A67302221A6007F50273A3F503
:101C1400A6731B6893FAA3F207F50273A3F5A873DE
:101C24001A6007F50273A3F5A8731B68B3FA83F36C
:101C3400DBB25B09DBB243F00203DBB2022B02D15D
:101C4400424B1B6A13E007F50273A3F5AA73022241
:101C54001A6007F50273A3F5AA731B6893FAA3F23B
:101C640007F50273A3F5AC731A60384B5B6A07F58A
:101C74000272A2F5AE720221116007F50272A2F59A
:101C8400AE72126892FAA2F107F50272A2F5B0726E
:101C9400116007F50272A2F5B0721268B2FA82F20C
:101CA400D2B242F04002D2B202F01F02012101FA84
:101CB40002F21340002B84D083E0FEF711FEC7F834
:101CC40000020BE0FEF70CFE0246D7F80032D31AEE
:101CD40041F28832934201D90323E4E207F5027307
:101CE400A3F5B27302221A6007F50273A3F5B27367
:101CF4001B6893FAA3F207F50273A3F5B4731A6091
:101D040007F50273A3F5B67302221A6007F502738E
:101D1400A3F5B6731B6893FAA3F207F50273A3F550
:101D2400B8731A6007F50273A3F5B8731B68B3FAA6
:101D340083F3DBB25B09DBB243F00203DBB2022BB9
:101D440006D1024B1B6A17E00070004000100240ED
:101D540007F50273A3F5BA7302221A6007F502733A
:101D6400A3F5BA731B6893FAA3F207F50273A3F5FC
:101D7400BC731A60B34B5B6A07F50272A2F5BE72BC
:101D84000221116007F50272A2F5BE72126892FA7E
:101D9400A2F107F50272A2F5C072116007F5027292
:101DA400A2F5C0721268B2FA82F2D2B242F04002D4
:101DB400D2B202F01F02012101FA02F21340002BF9
:101DC40080D197F80732012B05D19E4BDB699D4AE0
:101DD40023F08053D36107F50273A3F501731B68E5
:101DE4009B69002B00F05E82964B5B6803F00C034A
:101DF400082B00F01F8207F50273A3F501731B681B
:101E04009B69022B40F0708107F50273A3F5C2733E
:101E14004FF080721A6007F50273A3F5C2731B6852
:101E240093FAA3F207F50273A3F5C4731A6007F5D6
:101E34000273A3F5C4731B68B3FA83F3DBB203F133
:101E4400845303F584139B001A4600231360FEF7A2
:101E540047FDC7F8000209E0FEF742FD0246D7F845
:101E64000032D31A022B01D903231CE207F50273B3
:101E7400A3F5C6734FF000721A6007F50273A3F559
:101E8400C6731B6893FAA3F207F50273A3F5C8732C
:101E94001A6007F50273A3F5C8731B68B3FA83F3DA
:101EA400DBB25B09DBB243F00103DBB2012B02D1ED
:101EB400644B1B6827E007F50273A3F5CA734FF060
:101EC40000721A6007F50273A3F5CA731B6893FACC
:101ED400A3F207F50273A3F5CC731A6007F5027336
:101EE400A3F5CE734FF000721A6007F50273A3F5E1
:101EF400CE731B6893FAA3F207F50273A3F5D073AC
:101F04001A60504B5B6A07F50272A2F5D2724FF069
:101F14000071116007F50272A2F5D272126892FA8A
:101F2400A2F107F50272A2F5D472116007F50272EC
:101F3400A2F5D4721268B2FA82F2D2B242F020024E
:101F4400D2B202F01F02012101FA02F21340002B67
:101F540082D13C4BDB6A23F00F0207F50273A3F531
:101F640001731B685B6A37491343CB62354B5B686B
:101F740023F4761207F50273A3F501731B68196A3B
:101F840007F50273A3F501731B68DB690B432D4945
:101F940013434B6007F50273A3F5D6734FF08072B9
:101FA4001A6007F50273A3F5D6731B6893FAA3F2BC
:101FB40007F50273A3F5D8731A6007F50273A3F546
:101FC400D8731B68B3FA83F3DBB203F1845303F5CC
:101FD40084139B001A4601231360FEF781FCC7F8A3
:101FE400000209E0FEF77CFC0246D7F80032D31A5F
:101FF400022B01D9032356E107F50273A3F5DA7323
:102004004FF000721A6007F50273A3F5DA731B68C8
:1020140093FAA3F207F50273A3F5DC731A6007F5CC
:102024000273A3F5DC731B68B3FA83F3DBB25B09B9
:10203400DBB243F00103DBB2012B05D1014B1B687A
:102044002AE000BF0010024007F50273A3F5DE7317
:102054004FF000721A6007F50273A3F5DE731B6874
:1020640093FAA3F207F50273A3F5E0731A6007F578
:102074000273A3F5E2734FF000721A6007F502735E
:10208400A3F5E2731B6893FAA3F207F50273A3F5B1
:10209400E4731A60864B5B6A07F50272A2F5E67276
:1020A4004FF00071116007F50272A2F5E672126832
:1020B40092FAA2F107F50272A2F5E872116007F52F
:1020C4000272A2F5E8721268B2FA82F2D2B242F057
:1020D4002002D2B202F01F02012101FA02F21340DF
:1020E400002B3FF47FAFDDE007F50273A3F5EA733D
:1020F4004FF080721A6007F50273A3F5EA731B6848
:1021040093FAA3F207F50273A3F5EC731A6007F5CB
:102114000273A3F5EC731B68B3FA83F3DBB203F128
:10212400845303F584139B001A4600231360FEF7BF
:10213400D7FBC7F8000209E0FEF7D2FB0246D7F846
:102144000032D31A022B01D90323ACE007F5027342
:10215400A3F5EE734FF000721A6007F50273A3F54E
:10216400EE731B6893FAA3F207F50273A3F5F073F9
:102174001A6007F50273A3F5F0731B68B3FA83F3CF
:10218400DBB25B09DBB243F00103DBB2012B02D10A
:10219400474B1B6827E007F50273A3F5F2734FF072
:1021A40000721A6007F50273A3F5F2731B6893FAC1
:1021B400A3F207F50273A3F5F4731A6007F502732B
:1021C400A3F5F6734FF000721A6007F50273A3F5D6
:1021D400F6731B6893FAA3F207F50273A3F5F87379
:1021E4001A60334B5B6A07F50272A2F5FA724FF07C
:1021F4000071116007F50272A2F5FA72126892FA80
:10220400A2F107F50272A2F5FC72116007F50272E1
:10221400A2F5FC721268B2FA82F2D2B242F0200243
:10222400D2B202F01F02012101FA02F21340002B84
:1022340082D137E007F50273A3F501731B689B692C
:10224400012B01D101232EE0194B5B68C7F8FC3147
:10225400174BDB6AC7F8F831D7F8FC3103F4C03206
:1022640007F50273A3F501731B68DB699A4217D162
:10227400D7F8FC3103F4701207F50273A3F5017368
:102284001B681B6A9A420BD1D7F8F83103F00F028E
:1022940007F50273A3F501731B685B6A9A4201D0C8
:1022A400012300E00023184607F50277BD4680BDF0
:1022B4000010024080B59EB000AF78603960002302
:1022C4007B677B68002B01D1012362E1904B1B6883
:1022D40003F007033A689A4210D98D4B1B6823F028
:1022E40007028B493B6813430B60894B1B6803F05F
:1022F40007033A689A4201D001234AE17B681B68CC
:1023040003F00203002B08D0824B5B6823F0F00239
:102314007B689B687F4913434B607B681B6803F0B1
:102324000103002B00F0DC807B685B68012B3CD14F
:102334004FF400333B673B6F93FAA3F3FB66FB6EEA
:10234400B3FA83F3DBB25B09DBB243F00103DBB224
:10235400012B02D16F4B1B680FE04FF40033BB66B7
:10236400BB6E93FAA3F37B664FF400333B663B6E7C
:1023740093FAA3F3FB65674B5B6A4FF40032BA65CB
:10238400BA6D92FAA2F27A657A6DB2FA82F2D2B298
:1023940042F02002D2B202F01F02012101FA02F23D
:1023A4001340002B7BD10123F3E07B685B68022B95
:1023B4003CD14FF000733B653B6D93FAA3F3FB6490
:1023C400FB6CB3FA83F3DBB25B09DBB243F00103CA
:1023D400DBB2012B02D14F4B1B680FE04FF00073AF
:1023E400BB64BB6C93FAA3F37B644FF000733B6450
:1023F4003B6C93FAA3F3FB63464B5B6A4FF00072AA
:10240400BA63BA6B92FAA2F27A637A6BB2FA82F284
:10241400D2B242F02002D2B202F01F02012101FA2C
:1024240002F21340002B3AD10123B2E002233B63B2
:102434003B6B93FAA3F3FB62FB6AB3FA83F3DBB25D
:102444005B09DBB243F00103DBB2012B02D1314B58
:102454001B680DE00223BB62BB6A93FAA3F37B62A1
:1024640002233B623B6A93FAA3F3FB61294B5B6A49
:102474000222BA61BA6992FAA2F27A617A69B2FA6C
:1024840082F2D2B242F02002D2B202F01F02012143
:1024940001FA02F21340002B01D1012379E01D4B14
:1024A4005B6823F003027B685B681A4913434B6043
:1024B400FEF716FA78670AE0FEF712FA02467B6F17
:1024C400D31A41F28832934201D9032361E0114BBC
:1024D4005B6803F00C027B685B689B009A42EBD15B
:1024E4000B4B1B6803F007033A689A4214D2084B5B
:1024F4001B6823F0070206493B6813430B60044B37
:102504001B6803F007033A689A4205D0012340E0B0
:1025140000200240001002407B681B6803F00403A3
:10252400002B08D01D4B5B6823F4E0627B68DB68FA
:102534001A4913434B607B681B6803F00803002BA4
:1025440009D0164B5B6823F460527B681B69DB007F
:10255400124913434B6000F029F801460F4B5B68A6
:1025640003F0F003F0223A613A6992FAA2F2FA60B7
:10257400FA68B2FA82F2D2B2D340094AD35C21FAA1
:1025840003F3084A1360084B1B681846FEF764F906
:10259400002318467837BD4680BD00BF00100240B6
:1025A400A84A0008000000200400002080B487B07E
:1025B40000AF0023FB600023BB6000237B6100238A
:1025C4007B6000233B611F4B5B68FB60FB6803F08F
:1025D4000C03042B02D0082B03D029E01A4B3B61D7
:1025E40029E0FB689B0C03F00F03184AD35C7B6063
:1025F400144BDB6A03F00F03154AD35CBB60FB6822
:1026040003F48033002B08D00F4ABB68B2FBF3F20B
:102614007B6802FB03F37B6107E00B4ABB68B2FBF8
:10262400F3F27B6802FB03F37B617B693B6102E0AD
:10263400054B3B6100BF3B6918461C37BD465DF83E
:10264400047B70470010024000127A00C04A000860
:10265400D04A000880B400AF034B1B681846BD463F
:102664005DF8047B704700BF0000002080B582B095
:1026740000AFFFF7EFFF01460B4B5B6803F4E06329
:102684004FF4E0627A607A6892FAA2F23A603A68A9
:10269400B2FA82F2D2B2D340044AD35C21FA03F3F1
:1026A40018460837BD4680BD00100240B84A0008ED
:1026B40080B582B000AFFFF7CDFF01460B4B5B68DE
:1026C40003F460534FF460527A607A6892FAA2F28B
:1026D4003A603A68B2FA82F2D2B2D340044AD35C86
:1026E40021FA03F318460837BD4680BD00100240A6
:1026F400B84A000880B592B000AF786000233B640C
:102704000023FB63002387F847307B681B6803F4CE
:102714008033002B00F0D4804E4BDB6903F08053F0
:10272400002B0ED14B4BDB694A4A43F08053D361F3
:10273400484BDB6903F08053BB60BB68012387F817
:102744004730454B1B6803F48073002B18D1424B70
:102754001B68414A43F480731360FEF7C1F8386480
:1027640008E0FEF7BDF802463B6CD31A642B01D98E
:102774000323D6E1384B1B6803F48073002BF0D09D
:10278400344B1B6A03F44073FB63FB6B002B00F0B8
:1027940084807B685B6803F44073FA6B9A427CD054
:1027A4002C4B1B6A23F44073FB634FF480333B636D
:1027B4003B6B93FAA3F3FB62FB6AB3FA83F3DBB2DA
:1027C4001A46264B13449B001A46012313604FF408
:1027D4008033BB63BB6B93FAA3F37B637B6BB3FA6A
:1027E40083F3DBB21A461D4B13449B001A460023A5
:1027F4001360184AFB6B1362FB6B03F00103002B9D
:102804004BD0FEF76DF838640AE0FEF769F802462B
:102814003B6CD31A41F28832934201D9032380E1FD
:102824000223BB62BB6A93FAA3F37B6202233B627B
:102834003B6A93FAA3F3FB61FB69B3FA83F3DBB25C
:102844005B09DBB243F00203DBB2022B08D1014B7C
:102854001B6A0DE0001002400070004000819010DF
:102864000223BB61BB6993FAA3F37B619A4B5B6A56
:1028740002223A613A6992FAA2F2FA60FA68B2FA6A
:1028840082F2D2B242F04002D2B202F01F0201211F
:1028940001FA02F21340002BB7D08F4B1B6A23F4CA
:1028A40040727B685B688C4913430B6297F847302E
:1028B400012B05D1884BDB69874A23F08053D36110
:1028C4007B681B6803F00103002B08D0824B1B6B51
:1028D40023F003027B689B687F4913430B637B6887
:1028E4001B6803F00203002B08D07B4B1B6B23F403
:1028F40040327B68DB68784913430B637B681B6851
:1029040003F00403002B08D0734B1B6B23F4402209
:102914007B681B69704913430B637B681B6803F076
:102924002003002B08D06C4B1B6B23F010027B6838
:10293400DB69694913430B637B681B6803F4003349
:10294400002B08D0644B5B6823F480027B685B6DCA
:10295400614913434B607B681B6803F04003002B01
:1029640008D05D4B1B6B23F020027B681B6A5A491D
:1029740013430B637B681B6803F48023002B08D08C
:10298400554B1B6B23F040027B685B6A524913432F
:102994000B637B681B6803F00803002B08D04E4BC5
:1029A4001B6B23F440127B685B694B4913430B6335
:1029B4007B681B6803F01003002B08D0464B1B6B8D
:1029C40023F440027B689B69434913430B637B6890
:1029D4001B6803F40073002B08D03F4B5B6823F49F
:1029E40000027B681B6B3C4913434B607B681B688C
:1029F40003F08003002B08D0374BDB6A23F4F87212
:102A04007B689B6A34491343CB627B681B6803F47D
:102A14008073002B08D0304BDB6A23F478527B6838
:102A2400DB6A2D491343CB627B681B6803F4805334
:102A3400002B08D0284B1B6B23F480727B685B6BE4
:102A4400254913430B637B681B6803F40053002B75
:102A540008D0214B1B6B23F400727B681B6C1E494E
:102A640013430B637B681B6803F48013002B08D0AB
:102A7400194B1B6B23F080727B689B6B16491343C5
:102A84000B637B681B6803F40013002B08D0124B04
:102A94001B6B23F000727B68DB6B0F4913430B63E2
:102AA4007B681B6803F48003002B08D00A4B1B6B64
:102AB40023F480627B685B6C074913430B637B6878
:102AC4001B6803F40003002B0CD0034B1B6B23F493
:102AD40000627B6802E000BF001002409B6C134957
:102AE40013430B637B681B6803F08073002B08D0CF
:102AF4000E4B1B6B23F400527B68DB6C0B491343B6
:102B04000B637B681B6803F00073002B08D0074B32
:102B14001B6B23F400427B681B6D044913430B6356
:102B2400002318464837BD4680BD00BF0010024050
:102B340080B582B000AF78607B68002B01D101239F
:102B440049E07B6893F83D30DBB2002B06D17B680B
:102B5400002283F83C207868FDF732FD7B6802226E
:102B640083F83D207B681A687B6804331946104655
:102B740000F080FB7B68012283F848207B680122F7
:102B840083F83E207B68012283F83F207B68012282
:102B940083F840207B68012283F841207B6801226E
:102BA40083F842207B68012283F843207B6801225A
:102BB40083F844207B68012283F845207B68012246
:102BC40083F846207B68012283F847207B68012232
:102BD40083F83D20002318460837BD4680BD80B5E4
:102BE40082B000AF78607B68002B01D1012349E0FB
:102BF4007B6893F83D30DBB2002B06D17B68002262
:102C040083F83C20786800F041F87B68022283F85E
:102C14003D207B681A687B6804331946104600F02F
:102C240029FB7B68012283F848207B68012283F812
:102C34003E207B68012283F83F207B68012283F8D1
:102C440040207B68012283F841207B68012283F8BD
:102C540042207B68012283F843207B68012283F8A9
:102C640044207B68012283F845207B68012283F895
:102C740046207B68012283F847207B68012283F881
:102C84003D20002318460837BD4680BD80B483B07C
:102C940000AF786000BF0C37BD465DF8047B704719
:102CA40080B584B000AF786039603B68002B09D1EF
:102CB4007B6893F83E30DBB2012B14BF0123002361
:102CC400DBB23CE03B68042B09D17B6893F83F30CE
:102CD400DBB2012B14BF01230023DBB22FE03B68DE
:102CE400082B09D17B6893F84030DBB2012B14BF69
:102CF40001230023DBB222E03B680C2B09D17B6863
:102D040093F84130DBB2012B14BF01230023DBB263
:102D140015E03B68102B09D17B6893F84230DBB295
:102D2400012B14BF01230023DBB208E07B6893F876
:102D34004330DBB2012B14BF01230023DBB2002B91
:102D440001D00123A1E03B68002B04D17B6802225F
:102D540083F83E2023E03B68042B04D17B680222E5
:102D640083F83F201BE03B68082B04D17B680222D8
:102D740083F8402013E03B680C2B04D17B680222CB
:102D840083F841200BE03B68102B04D17B680222BE
:102D940083F8422003E07B68022283F843207B68A7
:102DA4001B6801223968184600F0AEFE7B681B6878
:102DB400384A934218D07B681B68374A934213D031
:102DC4007B681B68354A93420ED07B681B68344A83
:102DD400934209D07B681B68324A934204D07B68D3
:102DE4001B68314A934201D1012300E00023002BE8
:102DF40007D07B681B685A6C7B681B6842F40042EE
:102E04005A647B681B68234A93421DD07B681B6805
:102E1400B3F1804F18D07B681B68244A934213D0C7
:102E24007B681B68224A93420ED07B681B681A4A4F
:102E3400934209D07B681B68184A934204D07B688C
:102E44001B68194A934215D17B681B689A68194B11
:102E54001340FB60FB68062B15D0FB68B3F5803F7D
:102E640011D07B681B681A687B681B6842F00102FA
:102E74001A6008E07B681B681A687B681B6842F06C
:102E840001021A6000E000BF002318461037BD4657
:102E940080BD00BF002C01400034014000400140CF
:102EA400004401400048014000500140000400403B
:102EB400000800400700010080B586B000AFF8604C
:102EC400B9607A600023FB75FB6893F83C30012BF2
:102ED40001D10223FFE0FB68012283F83C207B68D8
:102EE400142B00F2F08001A252F823F0452F0008C1
:102EF400CB300008CB300008CB300008852F000809
:102F0400CB300008CB300008CB300008C72F0008B6
:102F1400CB300008CB300008CB3000080730000865
:102F2400CB300008CB300008CB3000084930000813
:102F3400CB300008CB300008CB30000889300008C3
:102F4400FB681B68B968184600F03EFAFB681B680A
:102F54009A69FB681B6842F008029A61FB681B6867
:102F64009A69FB681B6822F004029A61FB681B687B
:102F74009969BB681A69FB681B680A439A61A5E0F2
:102F8400FB681B68B968184600F0B8FAFB681B6850
:102F94009A69FB681B6842F400629A61FB681B68CB
:102FA4009A69FB681B6822F480629A61FB681B685B
:102FB4009969BB681B691A02FB681B680A439A611A
:102FC40084E0FB681B68B968184600F02BFBFB68BB
:102FD4001B68DA69FB681B6842F00802DA61FB6867
:102FE4001B68DA69FB681B6822F00402DA61FB687B
:102FF4001B68D969BB681A69FB681B680A43DA61F4
:1030040064E0FB681B68B968184600F09DFBFB6828
:103014001B68DA69FB681B6842F40062DA61FB68CA
:103024001B68DA69FB681B6822F48062DA61FB685A
:103034001B68D969BB681B691A02FB681B680A43D1
:10304400DA6143E0FB681B68B968184600F0ECFBE2
:10305400FB681B685A6DFB681B6842F008025A65DE
:10306400FB681B685A6DFB681B6822F004025A65F2
:10307400FB681B68596DBB681A69FB681B680A43C7
:103084005A6523E0FB681B68B968184600F036FCF3
:10309400FB681B685A6DFB681B6842F400625A6542
:1030A400FB681B685A6DFB681B6822F480625A65D2
:1030B400FB681B68596DBB681B691A02FB681B68B7
:1030C4000A435A6502E00123FB7500BFFB68002236
:1030D40083F83C20FB7D18461837BD4680BD00BFF1
:1030E40080B584B000AF786039600023FB737B68DF
:1030F40093F83C30012B01D10223B6E07B68012216
:1031040083F83C207B68022283F83D207B681B689F
:103114009B68BB60BB6823F4803323F07703BB60F8
:10312400BB6823F47F43BB607B681B68BA689A6002
:103134003B681B68B3F5005F3ED0B3F5005F00F257
:103144008780B3F5805F00F08680B3F5805F7FD819
:10315400702B1AD0702B7BD8602B50D0602B77D873
:10316400502B3CD0502B73D8402B58D0402B6FD8C9
:10317400302B64D0302B6BD8202B60D0202B67D819
:10318400002B5CD0102B5AD062E07B6818683B6837
:1031940099683B685A683B68DB6800F095FC7B687B
:1031A4001B689B68BB60BB6843F07703BB607B68AC
:1031B4001B68BA689A604FE07B6818683B68996836
:1031C4003B685A683B68DB6800F07EFC7B681B68E0
:1031D4009A687B681B6842F480429A603CE07B6892
:1031E40018683B6859683B68DB681A4600F0F2FBD4
:1031F4007B681B685021184600F04BFC2CE07B6870
:1032040018683B6859683B68DB681A4600F011FC93
:103214007B681B686021184600F03BFC1CE07B685F
:1032240018683B6859683B68DB681A4600F0D2FBB3
:103234007B681B684021184600F02BFC0CE07B687F
:103244001A683B681B681946104600F022FC03E02C
:103254000123FB7300E000BF7B68012283F83D205B
:103264007B68002283F83C20FB7B18461037BD4660
:1032740080BD000080B485B000AF786039607B68A1
:103284001B68FB607B68484A934213D07B68B3F1A8
:10329400804F0FD07B68454A93420BD07B68444AE9
:1032A400934207D07B68434A934203D07B68424AE7
:1032B400934208D1FB6823F07003FB603B685B68B2
:1032C400FA681343FB607B68374A93421FD07B68DC
:1032D400B3F1804F1BD07B68344A934217D07B688C
:1032E400334A934213D07B68324A93420FD07B68AF
:1032F400324A93420BD07B68314A934207D07B68B1
:10330400304A934203D07B682B4A934208D1FB682E
:1033140023F44073FB603B68DB68FA681343FB608B
:10332400FB6823F080023B685B691343FB607B68A6
:10333400FA681A603B689A687B68DA623B681A68C4
:103344007B689A627B68184A934213D07B68194A57
:1033540093420FD07B68194A93420BD07B68184A7A
:10336400934207D07B68174A934203D07B68124A82
:10337400934203D13B681A697B681A637B68012214
:103384005A617B681B6903F00103012B05D17B683B
:103394001B6923F001027B681A6100BF1437BD4624
:1033A4005DF8047B704700BF002C0140000400401E
:1033B400000800400034014000500140004001403A
:1033C400004401400048014080B487B000AF7860F9
:1033D40039607B681B6A7B617B681B6A23F001028E
:1033E4007B681A627B685B683B617B689B69FB60F6
:1033F400FB6823F4803323F07003FB60FB6823F045
:103404000303FB603B681B68FA681343FB607B693A
:1034140023F002037B613B689B687A6913437B61F9
:103424007B68304A934213D07B682F4A93420FD073
:103434007B682E4A93420BD07B682D4A934207D077
:103444007B682C4A934203D07B682B4A93420CD16D
:103454007B6923F008037B613B68DB687A6913436B
:103464007B617B6923F004037B617B681D4A934283
:1034740013D07B681C4A93420FD07B681B4A93424B
:103484000BD07B681A4A934207D07B68194A93424F
:1034940003D07B68184A934211D13B6923F48073AB
:1034A4003B613B6923F400733B613B685B693A69A8
:1034B40013433B613B689B693A6913433B617B68F7
:1034C4003A695A607B68FA689A613B685A687B6813
:1034D4005A637B687A691A6200BF1C37BD465DF87F
:1034E400047B7047002C014000340140004001403F
:1034F40000440140004801400050014080B487B0BE
:1035040000AF786039607B681B6A7B617B681B6AEB
:1035140023F010027B681A627B685B683B617B68FE
:103524009B69FB60FB6823F0807323F4E043FB603A
:10353400FB6823F44073FB603B681B681B02FA685A
:103544001343FB607B6923F020037B613B689B682A
:103554001B017A6913437B617B682C4A934207D031
:103564007B682B4A934203D07B682A4A93420DD14D
:103574007B6923F080037B613B68DB681B017A690C
:1035840013437B617B6923F040037B617B681F4AA3
:10359400934213D07B681E4A93420FD07B681E4A25
:1035A40093420BD07B681D4A934207D07B681C4A28
:1035B400934203D07B68174A934213D13B6923F4A7
:1035C40080633B613B6923F400633B613B685B6957
:1035D4009B003A6913433B613B689B699B003A69D2
:1035E40013433B617B683A695A607B68FA689A6165
:1035F4003B685A687B689A637B687A691A6200BF81
:103604001C37BD465DF8047B704700BF002C0140A9
:10361400003401400050014000400140004401409A
:103624000048014080B487B000AF786039607B689F
:103634001B6A7B617B681B6A23F480727B681A6255
:103644007B685B683B617B68DB69FB60FB6823F438
:10365400803323F07003FB60FB6823F00303FB60FB
:103664003B681B68FA681343FB607B6923F40073AF
:103674007B613B689B681B027A6913437B617B68AF
:103684002B4A934207D07B682A4A934203D07B6833
:10369400294A93420DD17B6923F400637B613B6823
:1036A400DB681B027A6913437B617B6923F48063C3
:1036B4007B617B681E4A934213D07B681D4A934208
:1036C4000FD07B681D4A93420BD07B681C4A9342FF
:1036D40007D07B681B4A934203D07B68164A934207
:1036E40013D13B6923F480533B613B6923F40053BA
:1036F4003B613B685B691B013A6913433B613B686F
:103704009B691B013A6913433B617B683A695A60C0
:103714007B68FA68DA613B685A687B68DA637B68BD
:103724007A691A6200BF1C37BD465DF8047B704796
:10373400002C014000340140005001400040014091
:10374400004401400048014080B487B000AF786075
:1037540039607B681B6A3B617B681B6A23F4805277
:103764007B681A627B685B687B617B68DB69FB60F2
:10377400FB6823F0807323F4E043FB60FB6823F4CD
:103784004073FB603B681B681B02FA681343FB60D1
:103794003B6923F400533B613B689B681B033A6914
:1037A40013433B617B681A4A934213D07B68194ADE
:1037B40093420FD07B68184A93420BD07B68174A18
:1037C400934207D07B68164A934203D07B68154A1C
:1037D400934209D17B6923F480437B613B685B6935
:1037E4009B017A6913437B617B687A695A607B68C1
:1037F400FA68DA613B685A687B681A647B683A69DC
:103804001A6200BF1C37BD465DF8047B704700BFD9
:10381400002C0140003401400040014000440140BC
:10382400004801400050014080B487B000AF786088
:1038340039607B681B6A3B617B681B6A23F48032B6
:103844007B681A627B685B687B617B685B6DFB608D
:10385400FB6823F4803323F07003FB603B681B6830
:10386400FA681343FB603B6923F400333B613B6814
:103874009B681B043A6913433B617B68194A934272
:1038840013D07B68184A93420FD07B68174A93423F
:103894000BD07B68164A934207D07B68154A934243
:1038A40003D07B68144A934209D17B6923F48033A3
:1038B4007B613B685B691B027A6913437B617B68AC
:1038C4007A695A607B68FA685A653B685A687B680B
:1038D4009A657B683A691A6200BF1C37BD465DF879
:1038E400047B7047002C014000340140004001403B
:1038F40000440140004801400050014080B487B0BA
:1039040000AF786039607B681B6A3B617B681B6A27
:1039140023F480127B681A627B685B687B617B6836
:103924005B6DFB60FB6823F0807323F4E043FB6072
:103934003B681B681B02FA681343FB603B6923F472
:1039440000133B613B689B681B053A6913433B6169
:103954007B681A4A934213D07B68194A93420FD06A
:103964007B68184A93420BD07B68174A934207D06E
:103974007B68164A934203D07B68154A934209D167
:103984007B6923F480237B613B685B699B027A69D2
:1039940013437B617B687A695A607B68FA685A656D
:1039A4003B685A687B68DA657B683A691A6200BFCB
:1039B4001C37BD465DF8047B704700BF002C0140F6
:1039C40000340140004001400044014000480140EF
:1039D4000050014080B487B000AFF860B9607A60ED
:1039E400FB681B6A7B61FB681B6A23F00102FB68AE
:1039F4001A62FB689B693B613B6923F0F0033B61FE
:103A04007B681B013A6913433B617B6923F00A031A
:103A14007B617A69BB6813437B61FB683A699A618D
:103A2400FB687A691A6200BF1C37BD465DF8047BE7
:103A3400704780B487B000AFF860B9607A60FB6803
:103A44001B6A7B61FB681B6A23F01002FB681A6225
:103A5400FB689B693B613B6923F470433B617B6872
:103A64001B033A6913433B617B6923F0A0037B6129
:103A7400BB681B017A6913437B61FB683A699A61ED
:103A8400FB687A691A6200BF1C37BD465DF8047B87
:103A9400704780B485B000AF786039607B689B68FC
:103AA400FB60FB6823F07003FB603A68FB68134318
:103AB40043F00703FB607B68FA689A6000BF143721
:103AC400BD465DF8047B704780B487B000AFF860F2
:103AD400B9607A603B60FB689B687B617B6923F417
:103AE4007F437B613B681A027B681A43BB681343BC
:103AF4007A6913437B61FB687A699A6000BF1C375B
:103B0400BD465DF8047B704780B487B000AFF860B1
:103B1400B9607A60BB6803F01F03012202FA03F361
:103B24007B61FB681A6A7B69DB431A40FB681A6293
:103B3400FB681A6ABB6803F01F03796801FA03F390
:103B44001A43FB681A6200BF1C37BD465DF8047B4C
:103B54007047000080B485B000AF786039607B683E
:103B640093F83C30012B01D102236DE07B680122E4
:103B740083F83C207B68022283F83D207B681B6825
:103B84005B68FB607B681B689B68BB607B681B6829
:103B9400304A934209D07B681B682F4A934204D071
:103BA4007B681B682D4A934208D1FB6823F4700399
:103BB400FB603B685B68FA681343FB60FB6823F0B7
:103BC4007003FB603B681B68FA681343FB607B6807
:103BD4001B68FA685A607B681B681E4A93421DD0B2
:103BE4007B681B68B3F1804F18D07B681B681C4A44
:103BF400934213D07B681B681A4A93420ED07B68A9
:103C04001B68154A934209D07B681B68164A934285
:103C140004D07B681B68114A93420CD1BB6823F023
:103C24008003BB603B689B68BA681343BB607B68D6
:103C34001B68BA689A607B68012283F83D207B6820
:103C4400002283F83C20002318461437BD465DF853
:103C5400047B7047002C01400034014000500140B7
:103C640000040040000800400040014080B582B0DC
:103C740000AF78607B68002B01D1012340E07B68B2
:103C8400DB6F002B06D17B68002283F878207868EC
:103C9400FCF7E8FC7B682422DA677B681B681A68F7
:103CA4007B681B6822F001021A607B685B6A002B48
:103CB40002D0786800F0EAFA786800F013F9034655
:103CC400012B01D101231BE07B681B685A687B68C8
:103CD4001B6822F490425A607B681B689A687B6870
:103CE4001B6822F02A029A607B681B681A687B684A
:103CF4001B6842F001021A60786800F069FB034611
:103D040018460837BD4680BD80B58AB002AFF8605A
:103D1400B9603B601346FB80FB68DB6F202B77D1D7
:103D2400BB68002B02D0FB88002B01D1012370E07B
:103D3400FB680022C3F88420FB682122DA67FCF7C1
:103D4400CFFD7861FB68FA88A3F85020FB68FA88F5
:103D5400A3F85220FB689B68B3F5805F08D1FB6829
:103D64001B69002B04D10023FB61BB68BB6103E02A
:103D7400BB68FB610023BB612FE03B6800937B6958
:103D840000228021F86800F0CBFB0346002B04D00E
:103D9400FB682022DA6703233BE0FB69002B0BD18D
:103DA400BB691A88FB681B68C2F3080292B21A85C1
:103DB400BB690233BB6107E0FB691A78FB681B68C7
:103DC4001A85FB690133FB61FB68B3F852309BB27F
:103DD400013B9AB2FB68A3F85220FB68B3F8523057
:103DE4009BB2002BC9D13B6800937B690022402120
:103DF400F86800F095FB0346002B04D0FB682022F2
:103E0400DA67032305E0FB682022DA67002300E079
:103E1400022318462037BD4680BD80B58AB000AF66
:103E2400F860B9601346FB80FB68D3F88030202B20
:103E340032D1BB68002B02D0FB88002B01D10123B7
:103E44002BE0FB6800221A66FB681B685B6803F4BE
:103E54000003002B18D0FB681B687B617B6953E867
:103E6400003F3B613B6943F080637B62FB681B68F6
:103E74001A467B6A3B62FA61F9693A6A41E80023AF
:103E8400BB61BB69002BE6D1FB881A46B968F868A8
:103E940000F0B4FB034600E0022318462837BD4671
:103EA40080BD80B483B000AF786000BF0C37BD46DE
:103EB4005DF8047B704780B483B000AF786000BFC6
:103EC4000C37BD465DF8047B704780B483B000AF07
:103ED40078600B467B8000BF0C37BD465DF8047BE1
:103EE4007047000080B588B000AF78600023BB77CE
:103EF4007B689A687B681B691A437B685B691A4311
:103F04007B68DB6913437B617B681B681A68924B8F
:103F140013407A68126879690B4313607B681B68E5
:103F24005B6823F440517B68DA687B681B680A434A
:103F34005A607B689B697B617B681B6A7A6913435F
:103F44007B617B681B689B6823F430617B681B681A
:103F54007A690A439A607B681B68804A934220D13D
:103F64007F4B1B6B03F00303032B17D801A252F8FA
:103F740023F000BF893F0008953F00089B3F0008DD
:103F84008F3F00080123FB77B5E00223FB77B2E003
:103F94000423FB77AFE00823FB77ACE01023FB7727
:103FA400A9E07B681B686F4A934224D16C4B1B6B5E
:103FB40003F44033B3F5403F11D0B3F5403F17D875
:103FC400B3F5003F11D0B3F5003F11D8002B03D057
:103FD400B3F5803F06D00BE00023FB778BE0022390
:103FE400FB7788E00423FB7785E00823FB7782E0F6
:103FF4001023FB777FE07B681B685B4A934224D1E4
:10400400574B1B6B03F44023B3F5402F11D0B3F58A
:10401400402F17D8B3F5002F11D0B3F5002F11D8C6
:10402400002B03D0B3F5802F06D00BE00023FB77E1
:1040340061E00223FB775EE00423FB775BE0082367
:10404400FB7758E01023FB7755E07B681B68474AF1
:10405400934224D1424B1B6B03F44013B3F5401F2E
:1040640011D0B3F5401F17D8B3F5001F11D0B3F525
:10407400001F11D8002B03D0B3F5801F06D00BE02E
:104084000023FB7737E00223FB7734E00423FB773C
:1040940031E00823FB772EE01023FB772BE07B68CD
:1040A4001B68334A934224D12D4B1B6B03F440030A
:1040B400B3F5400F11D0B3F5400F17D8B3F5000F87
:1040C40011D0B3F5000F11D8002B03D0B3F5800F36
:1040D40006D00BE00023FB770DE00223FB770AE018
:1040E4000423FB7707E00823FB7704E01023FB7726
:1040F40001E01023FB777B68DB69B3F5004F6BD1DC
:10410400FB7F082B38D801A252F823F03541000870
:104114003D410008454100087D4100084B4100082D
:104124007D4100087D4100087D410008534100089D
:10413400FEF79CFAB86124E0FEF7BAFAB86120E011
:104144000C4BBB611DE0FEF731FAB86119E04FF486
:104154000043BB6115E000BFF369FFEF0038014085
:10416400001002400044004000480040004C004061
:104174000050004000127A000023BB610123BB778A
:1041840000BFBB69002B73D0BB695A007B685B68B6
:104194005B081A447B685B68B2FBF3F33B613B69E1
:1041A4000F2B16D93B69B3F5803F12D23B699BB202
:1041B40023F00F03FB813B695B089BB203F0070309
:1041C4009AB2FB891343FB817B681B68FA89DA6026
:1041D4004EE00123BB774BE0FB7F082B27D801A2DD
:1041E40052F823F00D420008154200081D42000851
:1041F40033420008234200083342000833420008D7
:10420400334200082B420008FEF730FAB86113E08D
:10421400FEF74EFAB8610FE01B4BBB610CE0FEF7F2
:10422400C5F9B86108E04FF40043BB6104E0002322
:10423400BB610123BB7700BFBB69002B18D07B682F
:104244005B685A08BB691A447B685B68B2FBF3F38A
:104254003B613B690F2B09D93B69B3F5803F05D21C
:104264003B699AB27B681B68DA6001E00123BB7783
:104274007B6800229A667B680022DA66BB7F184658
:104284002037BD4680BD00BF00127A0080B483B0E1
:1042940000AF78607B685B6A03F00803002B0AD0E8
:1042A4007B681B685B6823F400417B685A6B7B68FE
:1042B4001B680A435A607B685B6A03F00103002BA6
:1042C4000AD07B681B685B6823F400317B689A6AB8
:1042D4007B681B680A435A607B685B6A03F00203CD
:1042E400002B0AD07B681B685B6823F480317B68F1
:1042F400DA6A7B681B680A435A607B685B6A03F06E
:104304000403002B0AD07B681B685B6823F48021BC
:104314007B681A6B7B681B680A435A607B685B6A1C
:1043240003F01003002B0AD07B681B689B6823F4FE
:1043340080517B689A6B7B681B680A439A607B6830
:104344005B6A03F02003002B0AD07B681B689B6820
:1043540023F400517B68DA6B7B681B680A439A601C
:104364007B685B6A03F04003002B1AD07B681B68F0
:104374005B6823F480117B681A6C7B681B680A43B2
:104384005A607B681B6CB3F5801F0AD17B681B687D
:104394005B6823F4C0017B685A6C7B681B680A4322
:1043A4005A607B685B6A03F08003002B0AD07B6849
:1043B4001B685B6823F400217B689A6C7B681B682C
:1043C4000A435A6000BF0C37BD465DF8047B704752
:1043D40080B598B002AF78607B680022C3F884206F
:1043E400FCF77EFA78657B681B681B6803F008039A
:1043F400082B2ED16FF07E4300937B6D00224FF487
:104404000011786800F08CF80346002B21D07B68FB
:104414001B68BB63BB6B53E8003F7B637B6B23F080
:1044240080033B657B681B681A463B6D7B643A647A
:10443400396C7A6C41E80023FB63FB6B002BE6D1FB
:104444007B682022DA677B68002283F878200323C4
:1044540062E07B681B681B6803F00403042B49D1EA
:104464006FF07E4300937B6D00224FF480017868E7
:1044740000F056F80346002B3CD07B681B687B6237
:104484007B6A53E8003F3B623B6A23F49073FB640E
:104494007B681B681A46FB6C3B63FA62F96A3A6BE9
:1044A40041E80023BB62BB6A002BE6D17B681B6832
:1044B40008333B613B6953E8003FFB60FB6823F032
:1044C4000103BB647B681B680833BA6CFA61BB6187
:1044D400B969FA6941E800237B617B69002BE5D166
:1044E4007B682022C3F880207B68002283F8782030
:1044F400032311E07B682022DA677B682022C3F85B
:1045040080207B6800221A667B6800225A667B68DA
:10451400002283F87820002318465837BD4680BD12
:1045240080B584B000AFF860B9603B601346FB719E
:104534004FE0BB69B3F1FF3F4BD0FCF7D1F9024622
:104544003B68D31ABA699A4202D3BB69002B01D1E2
:1045540003234EE0FB681B681B6803F00403002B75
:1045640037D0BB68802B34D0BB68402B31D0FB687C
:104574001B68DB6903F00803082B10D1FB681B6878
:1045840008221A62F86800F0FFF8FB680822C3F8F2
:104594008420FB68002283F87820012329E0FB684B
:1045A4001B68DB6903F40063B3F5006F11D1FB688A
:1045B4001B684FF400621A62F86800F0E5F8FB68C3
:1045C4002022C3F88420FB68002283F87820032388
:1045D4000FE0FB681B68DA69BB681340BA689A424B
:1045E4000CBF01230023DBB21A46FB799A42A0D008
:1045F400002318461037BD4680BD000080B596B034
:1046040000AFF860B9601346FB80FB68BA685A656E
:10461400FB68FA88A3F85820FB680022C3F88420BA
:10462400FB682222C3F88020FB685B6F002B28D034
:10463400FB685B6F3E4A9A62FB685B6F3D4ADA62D5
:10464400FB685B6F3C4A1A63FB685B6F00225A632A
:10465400FB68586FFB681B6824331946FB685B6D65
:104664001A46FB88FCF7C4FA0346002B09D0FB6802
:104674001022C3F88420FB682022C3F88020012381
:1046840051E0FB681B69002B18D0FB681B68FB63B7
:10469400FB6B53E8003FBB63BB6B43F480737B65E8
:1046A400FB681B681A467B6DBB647A64796CBA6CD0
:1046B40041E800233B643B6C002BE6D1FB681B689C
:1046C4000833BB62BB6A53E8003F7B627B6A43F0FA
:1046D40001033B65FB681B6808333A6D7A633B63EF
:1046E400396B7A6B41E80023FB62FB6A002BE5D14E
:1046F400FB681B6808337B617B6953E8003F3B61BF
:104704003B6943F04003FB64FB681B680833FA6CA5
:104714003A62FB61F9693A6A41E80023BB61BB690B
:10472400002BE5D1002318465837BD4680BD00BF95
:10473400554800087B490008B949000880B489B08D
:1047440000AF78607B681B68FB60FB6853E8003F40
:10475400BB60BB6823F0C003FB617B681B681A461F
:10476400FB69BB617A617969BA6941E800233B61FD
:104774003B69002BE6D17B682022DA6700BF24372F
:10478400BD465DF8047B704780B495B000AF786097
:104794007B681B687B637B6B53E8003F3B633B6B2D
:1047A40023F49073FB647B681B681A46FB6C3B64C0
:1047B400FA63F96B3A6C41E80023BB63BB6B002BD3
:1047C400E6D17B681B6808333B623B6A53E8003FD1
:1047D400FB61FB6923F00103BB647B681B6808333E
:1047E400BA6CFA62BB62B96AFA6A41E800237B6276
:1047F4007B6A002BE5D17B681B6E012B18D17B688B
:104804001B68FB60FB6853E8003FBB60BB6823F098
:1048140010037B647B681B681A467B6CBB617A61FE
:104824007969BA6941E800233B613B69002BE6D111
:104834007B682022C3F880207B6800221A667B688C
:1048440000229A6600BF5437BD465DF8047B70476A
:1048540080B59CB000AF78607B685B6AFB667B6860
:104864009B69202B71D0FB6E0022A3F85A20FB6EAB
:104874001B68FB64FB6C53E8003FBB64BB6C23F414
:104884008073BB66FB6E1B681A46BB6EBB657A659C
:10489400796DBA6D41E800233B653B6D002BE6D191
:1048A400FB6E1B680833BB63BB6B53E8003F7B6341
:1048B4007B6B23F001037B66FB6E1B6808337A6E07
:1048C4007A643B64396C7A6C41E80023FB63FB6BCC
:1048D400002BE5D1FB6E1B6808337B627B6A53E8CF
:1048E400003F3B623B6A23F040033B66FB6E1B6860
:1048F40008333A6E3A63FB62F96A3A6B41E8002383
:10490400BB62BB6A002BE5D1FB6E2022C3F880207A
:10491400FB6E1B6E012B18D1FB6E1B683B613B6960
:1049240053E8003FFB60FB6823F01003FB65FB6E5C
:104934001B681A46FB6DFB61BA61B969FA6941E803
:1049440000237B617B69002BE6D1FB6E00225A6653
:10495400FB6E1B6E012B07D1FB6EB3F85830194662
:10496400F86EFFF7B2FA02E0F86EFBF7C5FD00BF80
:104974007037BD4680BD80B584B000AF78607B6879
:104984005B6AFB60FB6801225A66FB681B6E012BA5
:1049940009D1FB68B3F858305B089BB21946F86834
:1049A400FFF793FA02E0F868FFF77BFA00BF1037CD
:1049B400BD4680BD80B586B000AF78607B685B6A19
:1049C4007B617B69DB6F3B617B69D3F88030FB6083
:1049D4007B691B689B6803F08003802B09D13B69CA
:1049E400212B06D17B690022A3F852207869FFF7B6
:1049F400A5FE7B691B689B6803F04003402B09D12B
:104A0400FB68222B06D17B690022A3F85A2078691F
:104A1400FFF7BAFE7B69D3F8843043F010027B6958
:104A2400C3F884207869FFF746FA00BF1837BD46FB
:104A340080BD02440346934200D1704703F8011B32
:104A4400F9E7000070B50D4D0D4C641BA410002651
:104A5400A64209D10B4D0C4C00F018F8641BA410AD
:104A64000026A64205D170BD55F8043B984701368F
:104A7400EEE755F8043B98470136F2E7E04A0008B0
:104A8400E04A0008E04A0008E44A0008F8B500BF1C
:104A9400F8BC08BC9E467047F8B500BFF8BC08BC1B
:044AA4009E46704773
:104AA80000000000000000000102030406070809D6
:104AB80000000000010203040203040506070809B8
:104AC8000A0B0C0D0E0F101001020304050607084F
:084AD800090A0B0C0D0E0F1072
:044AE000B901000810
:044AE4009501000830
:0C4AE80000127A00100000000100000025
:04000005080007DD0B
:00000001FF
